:020000040800F2
:1000000000280020711B0008011B0008071B0008C6
:100010000D1B0008131B0008191B0008000000003E
:100020000000000000000000000000001F1B00088E
:100030002B1B000800000000371B0008431B0008B2
:10004000B91B0008B91B0008B91B0008B91B000840
:10005000B91B0008B91B0008B91B0008B91B000830
:10006000B91B0008B91B0008B91B0008B91B000820
:10007000B91B0008B91B0008B91B0008B91B000810
:10008000B91B0008B91B0008B91B0008B91B000800
:10009000B91B0008B91B0008B91B0008B91B0008F0
:1000A000B91B0008B91B0008B91B0008B91B0008E0
:1000B000511B0008B91B000800000000B91B000814
:1000C000B91B00080000000000000000B91B000878
:1000D00000000000B91B0008B91B00080000000068
:1000E000B91B0008B91B0008B91B0008000000007C
:1000F0000000000000000000000000000000000000
:0C01000000000000000000005FF808F1A3
:10010C0010B5054C237833B9044B13B10448AFF345
:10011C0000800123237010BDA4000020000000000B
:10012C00E831000808B5034B1BB103490348AFF392
:10013C00008008BD00000000A8000020E831000885
:10014C0080B500AF00228021144802F032F8002262
:10015C004FF48071114802F02CF800224FF400711A
:10016C000E4802F026F800224FF480610B4802F092
:10017C0020F800224FF40061084802F01AF800221F
:10018C004FF48051054802F014F801224FF400514D
:10019C00024802F00EF800BF80BD00BF000C014009
:1001AC0080B500AF01228021144802F002F8002231
:1001BC004FF48071114801F0FCFF00224FF40071E4
:1001CC000E4801F0F6FF01224FF480610B4801F05C
:1001DC00F0FF01224FF40061084801F0EAFF012210
:1001EC004FF48051054801F0E4FF01224FF4005117
:1001FC00024801F0DEFF00BF80BD00BF000C0140D3
:10020C0080B500AF00228021144801F0D2FF0022FB
:10021C004FF48071114801F0CCFF01224FF40071B2
:10022C000E4801F0C6FF00224FF480610B4801F02C
:10023C00C0FF00224FF40061084801F0BAFF012210
:10024C004FF48051054801F0B4FF00224FF40051E7
:10025C00024801F0AEFF00BF80BD00BF000C0140A2
:10026C0080B500AF00228021144801F0A2FF0022CB
:10027C004FF48071114801F09CFF00224FF4007183
:10028C000E4801F096FF00224FF480610B4801F0FC
:10029C0090FF01224FF40061084801F08AFF01220F
:1002AC004FF48051054801F084FF00224FF40051B7
:1002BC00024801F07EFF00BF80BD00BF000C014072
:1002CC0080B500AF01228021144801F072FF00229A
:1002DC004FF48071114801F06CFF00224FF4007153
:1002EC000E4801F066FF01224FF480610B4801F0CB
:1002FC0060FF01224FF40061084801F05AFF002210
:10030C004FF48051054801F054FF00224FF4005186
:10031C00024801F04EFF00BF80BD00BF000C014041
:10032C0080B500AF00228021144801F042FF012269
:10033C004FF48071114801F03CFF00224FF4007122
:10034C000E4801F036FF00224FF480610B4801F09B
:10035C0030FF01224FF40061084801F02AFF00220F
:10036C004FF48051054801F024FF00224FF4005156
:10037C00024801F01EFF00BF80BD00BF000C014011
:10038C0080B500AF00228021144801F012FF012239
:10039C004FF48071114801F00CFF00224FF40071F2
:1003AC000E4801F006FF00224FF480610B4801F06B
:1003BC0000FF00224FF40061084801F0FAFE002211
:1003CC004FF48051054801F0F4FE00224FF4005127
:1003DC00024801F0EEFE00BF80BD00BF000C0140E2
:1003EC0080B500AF00228021144801F0E2FE00220B
:1003FC004FF48071114801F0DCFE00224FF40071C3
:10040C000E4801F0D6FE01224FF480610B4801F03A
:10041C00D0FE01224FF40061084801F0CAFE01220F
:10042C004FF48051054801F0C4FE01224FF40051F5
:10043C00024801F0BEFE00BF80BD00BF000C0140B1
:10044C0080B500AF00228021144801F0B2FE0022DA
:10045C004FF48071114801F0ACFE00224FF4007192
:10046C000E4801F0A6FE00224FF480610B4801F00B
:10047C00A0FE00224FF40061084801F09AFE002211
:10048C004FF48051054801F094FE00224FF40051C6
:10049C00024801F08EFE00BF80BD00BF000C014081
:1004AC0080B500AF00228021144801F082FE0022AA
:1004BC004FF48071114801F07CFE00224FF4007162
:1004CC000E4801F076FE00224FF480610B4801F0DB
:1004DC0070FE01224FF40061084801F06AFE002210
:1004EC004FF48051054801F064FE00224FF4005196
:1004FC00024801F05EFE00BF80BD00BF000C014051
:10050C0080B582B000AF78607B68092B34D801A22B
:10051C0052F823F0490500084F050008550500085E
:10052C005B05000861050008670500086D050008FB
:10053C0073050008790500087F050008FFF700FE29
:10054C001AE0FFF72DFE17E0FFF75AFE14E0FFF755
:10055C0087FE11E0FFF7B4FE0EE0FFF7E1FE0BE0C3
:10056C00FFF70EFF08E0FFF73BFF05E0FFF768FF22
:10057C0002E0FFF795FF00BF00BF0837BD4680BD06
:10058C0080B500AF00220121114801F012FE0022BB
:10059C0002210F4801F00DFE002204210C4801F04D
:1005AC0008FE002208210A4801F003FE0022102157
:1005BC00074801F0FEFD00222021054801F0F9FD5D
:1005CC0001224021024801F0F4FD00BF80BD00BFB4
:1005DC00000C014080B500AF01220121114801F04F
:1005EC00E8FD002202210F4801F0E3FD0022042166
:1005FC000C4801F0DEFD012208210A4801F0D9FD6A
:10060C0001221021074801F0D4FD012220210548C8
:10061C0001F0CFFD01224021024801F0CAFD00BFCC
:10062C0080BD00BF000C014080B500AF002201214D
:10063C00114801F0BEFD002202210F4801F0B9FD66
:10064C00012204210C4801F0B4FD002208210A48C3
:10065C0001F0AFFD00221021074801F0AAFD012294
:10066C002021054801F0A5FD00224021024801F09F
:10067C00A0FD00BF80BD00BF000C014080B500AFE5
:10068C0000220121114801F094FD002202210F48A3
:10069C0001F08FFD002204210C4801F08AFD00229C
:1006AC0008210A4801F085FD01221021074801F0BC
:1006BC0080FD01222021054801F07BFD0022402114
:1006CC00024801F076FD00BF80BD00BF000C014068
:1006DC0080B500AF01220121114801F06AFD002212
:1006EC0002210F4801F065FD002204210C4801F0A5
:1006FC0060FD012208210A4801F05BFD0122102156
:10070C00074801F056FD00222021054801F051FD5B
:10071C0000224021024801F04CFD00BF80BD00BF0B
:10072C00000C014080B500AF00220121114801F0FE
:10073C0040FD012202210F4801F03BFD0022042163
:10074C000C4801F036FD002208210A4801F031FD69
:10075C0001221021074801F02CFD00222021054820
:10076C0001F027FD00224021024801F022FD00BFCC
:10077C0080BD00BF000C014080B500AF00220121FC
:10078C00114801F016FD012202210F4801F011FD64
:10079C00002204210C4801F00CFD002208210A481B
:1007AC0001F007FD00221021074801F002FD002294
:1007BC002021054801F0FDFC00224021024801F0F7
:1007CC00F8FC00BF80BD00BF000C014080B500AF3D
:1007DC0000220121114801F0ECFC002202210F48FB
:1007EC0001F0E7FC002204210C4801F0E2FC01229C
:1007FC0008210A4801F0DDFC01221021074801F014
:10080C00D8FC01222021054801F0D3FC0122402113
:10081C00024801F0CEFC00BF80BD00BF000C0140BF
:10082C0080B500AF00220121114801F0C2FC00226A
:10083C0002210F4801F0BDFC002204210C4801F0FC
:10084C00B8FC002208210A4801F0B3FC0022102158
:10085C00074801F0AEFC00222021054801F0A9FC5C
:10086C0000224021024801F0A4FC00BF80BD00BF63
:10087C00000C014080B500AF00220121114801F0AD
:10088C0098FC002202210F4801F093FC0022042165
:10089C000C4801F08EFC002208210A4801F089FC6A
:1008AC0001221021074801F084FC00222021054878
:1008BC0001F07FFC00224021024801F07AFC00BFCD
:1008CC0080BD00BF000C014080B582B000AF7860E5
:1008DC007B68092B34D801A252F823F011090008C7
:1008EC00170900081D090008230900082909000838
:1008FC002F090008350900083B09000841090008C8
:10090C0047090008FFF73CFE1AE0FFF763FE17E00B
:10091C00FFF78AFE14E0FFF7B1FE11E0FFF7D8FEF7
:10092C000EE0FFF7FFFE0BE0FFF726FF08E0FFF7F6
:10093C004DFF05E0FFF774FF02E0FFF79BFF00BFE0
:10094C0000BF0837BD4680BD80B485B000AF78606D
:10095C000023FB6007E00A4AFB68002142F82310E1
:10096C00FB680133FB60FB68032BF4DD044A7B68F6
:10097C00012142F8231000BF1437BD4680BC7047DC
:10098C00C000002080B400AF034B01221A6000BFEE
:10099C00BD4680BC704700BFD000002080B582B03F
:1009AC0000AF574B1B68574A1360574B1B68544A90
:1009BC0013600121554801F0E5FB03461A46524BE2
:1009CC001A604F4B5B684F4A53604F4B5B684C4A05
:1009DC00536002214D4801F0D5FB03461A464A4BA1
:1009EC005A60474B9B68474A9360474B9B68444A05
:1009FC0093600421454801F0C5FB03461A46424B5F
:100A0C009A603F4BDB683F4AD3603F4BDB683C4A04
:100A1C00D36008213D4801F0B5FB03461A463A4B1A
:100A2C00DA6000237B6063E0364A7B6852F823204F
:100A3C0033497B6851F823309A4256D1304A7B684F
:100A4C0052F8232030497B6851F823309A424CD11C
:100A5C002F4A7B6852F823202B497B6851F82330AE
:100A6C009A4217D0284A7B6852F8232028497B6881
:100A7C0041F82320244A7B6852F82330002B34D1D0
:100A8C007868FFF761FF234A7B684FF4FA6142F8FC
:100A9C0023102AE01F4A7B6852F823305A1E1D4946
:100AAC007B6841F823201B4A7B6852F82330002BCB
:100ABC001BD17B68002B06D1134B1B68002B02D17A
:100ACC00FFF760FF0BE07B68002B08D00E4A7B68B9
:100ADC0052F82330002B02D17868FFF735FF0D4A0E
:100AEC007B684FF4FA6142F823107B6801337B601A
:100AFC007B68032B98DD00BF00BF0837BD4680BD67
:100B0C001000002000000020200000200008014000
:100B1C00300000204000002080B400AF1E4B0122AA
:100B2C001A601E4B00221A601D4B01221A601D4BCD
:100B3C0000221A601C4B1B681C4A13601C4B1B6860
:100B4C001C4A13601C4B1B681C4A1360164B1B6819
:100B5C001B4A1360164B1B681A4A1360164B1B6812
:100B6C00194A1360194B01221A60194B01221A60A1
:100B7C00184B02221A60184B00221A60174B0022E5
:100B8C001A60174B01221A60164B00221A6000BF24
:100B9C00BD4680BC704700BF50000020DC00002028
:100BAC0054000020E0000020800000205C000020A9
:100BBC0084000020600000208800002064000020D9
:100BCC00680000206C0000207000002074000020E1
:100BDC00780000207C000020F0000020EC000020B9
:100BEC0058000020E400002080B500AFA54B1B6826
:100BFC00022B79D0022B00F3B380002B02D0012BF7
:100C0C0039D0ADE000F0B4FB9F4B1B68012B0BD12E
:100C1C009E4B1B689E4A82FB03129210DB17D31A61
:100C2C001846FFF76DFC0FE0984B1A68984B83FB46
:100C3C0002139910D317C91A0B469B000B445B0087
:100C4C00D11A0846FFF75CFC924B1B68002B04D1B1
:100C5C008E4B1B68013B8D4A13608C4B1B68002B21
:100C6C0079D18D4B1B68894A1360864B1B68013305
:100C7C00844A13606FE000F08DFB834B1B68012BE3
:100C8C000BD1864B1B68824A82FB03129210DB1736
:100C9C00D31A1846FFF734FC0FE0804B1A687C4BD4
:100CAC0083FB02139910D317C91A0B469B000B44F4
:100CBC005B00D11A0846FFF723FC764B1B68002B10
:100CCC0004D1764B1B68013B744A1360734B1B6851
:100CDC00002B42D1724B1B68704A1360694B1B6826
:100CEC000133684A136038E000F066FB664B1B6802
:100CFC00012B0BD16B4B1B68654A82FB03129210C4
:100D0C00DB17D31A1846FFF7FBFB0FE0654B1A688D
:100D1C005F4B83FB02139910D317C91A0B469B0028
:100D2C000B445B00D11A0846FFF7EAFB594B1B68D2
:100D3C00002B04D15B4B1B68013B5A4A1360594B87
:100D4C001B68002B0BD1584B1B68564A13604D4B3C
:100D5C0000221A6003E000BF02E000BF00E000BF09
:100D6C00524B1B68022B7AD0022B00F3D180002B44
:100D7C0002D0012B3AD0CBE000F030FB424B1B6889
:100D8C00012B0BD14A4B1B68414A82FB0312921078
:100D9C00DB17D31A1846FFF797FD0FE0444B1A6880
:100DAC003B4B83FB02139910D317C91A0B469B00BC
:100DBC000B445B00D11A0846FFF786FD354B1B68C8
:100DCC00002B04D13A4B1B68013B394A1360384B5A
:100DDC001B68002B40F097802F4B1B68344A136024
:100DEC00324B1B680133314A13608CE000F008FB76
:100DFC00254B1B68012B0BD12E4B1B68244A82FB05
:100E0C0003129210DB17D31A1846FFF75DFD0FE0A3
:100E1C00284B1A681E4B83FB02139910D317C91A5F
:100E2C000B469B000B445B00D11A0846FFF74CFDA8
:100E3C00184B1B68002B04D11E4B1B68013B1D4A31
:100E4C0013601C4B1B68002B5FD1154B1B68194A98
:100E5C001360164B1B680133144A136055E000F005
:100E6C00E1FA094B1B68012B28D1134B1B68084A6C
:100E7C0082FB03129210DB17D31A1846FFF724FDDE
:100E8C002CE000BFEC000020780000205C0000206B
:100E9C00676666667C0000208000002064000020ED
:100EAC0088000020600000208400002058000020F2
:100EBC0068000020700000206C000020154B1A68A0
:100ECC00154B83FB02139910D317C91A0B469B00C1
:100EDC000B445B00D11A0846FFF7F6FC0F4B1B685E
:100EEC00002B04D10B4B1B68013B0A4A1360094BC6
:100EFC001B68002B0BD10A4B1B68064A1360094B6D
:100F0C0000221A6003E000BF02E000BF00E000BF57
:100F1C0000BF80BD6C000020676666667C00002008
:100F2C00840000205800002080B582B000AF7860AB
:100F3C003960374B1B68012B1BD17B68032B13D0FB
:100F4C007B68032B17DC7B68012B03D07B68022B9F
:100F5C0005D010E000F00CFA00F040FA0BE000F0C5
:100F6C002BFA00F05FFA06E000F014FA00F048FAF1
:100F7C0001E000F069FA274B5B68012B0BD1254B84
:100F8C0000225A603B68632B02D101233B6002E0D4
:100F9C003B6801333B601F4BDB68012B05D11D4BBC
:100FAC000022DA603B68013B3B603B68002B01D1BF
:100FBC0063233B60174B9B68012B1BD1154B002205
:100FCC009A607B68032B11D07B68032B13DC7B6846
:100FDC00012B03D07B68022B04D00CE00E4A3B683B
:100FEC00136008E00D4A3B68136004E00C4A3B6850
:100FFC00136000E000BF0B4A3B6813607B68013351
:10100C001846FFF761FC3B6818460837BD4680BDA3
:10101C0050000020C00000208C0000209000002018
:10102C0094000020E800002080B500AF734B1B68D3
:10103C00012B4FD1714B00221A60714B1B6801338D
:10104C006F4A13606F4B01221A606D4B1B68042BA7
:10105C0037D1032000F050FC6B4B1A686B4B1B68AC
:10106C001A446B4B1B689A420CD1694B1B68694A3A
:10107C001360654B1B68684A1360644B1B68674AB6
:10108C00136018E0624B1A68604B1B689A4212DDC1
:10109C005F4B1A685D4B1B68D31A5B4A13605C4B41
:1010AC001B685C4A1360584B1B685B4A1360574BB8
:1010BC001B685A4A1360FFF72FFD514B00221A6030
:1010CC0008E04F4B1B68012B04D1322200215448FD
:1010DC0000F008FB4A4B1B68032B00F28D8001A229
:1010EC0052F823F00111000879110008A71100082B
:1010FC00D51100084B4B1B68002B02D0012B07D0DD
:10110C000DE0484B01221A60474B00221A6006E0A2
:10111C00444B00221A60444B01221A6000BF384B2A
:10112C001B68002B08D13F4B1B68404A13603E4B99
:10113C001B683F4A136005E03C4B00221A603C4B95
:10114C0001221A603B4B1B685B423A4A13603A4BD4
:10115C001B68013B384A1360FFF746FD364B1B6892
:10116C00002B48D1344B02221A6044E0254B1B68FB
:10117C00012B06D1274B1B68304A1360214B0022F0
:10118C001A601F4B1B682D4A126811461846FFF750
:10119C00CBFE0346294A13602EE01A4B1B68012B29
:1011AC0006D11E4B1B68254A1360164B00221A6091
:1011BC00134B1B68214A126811461846FFF7B4FE00
:1011CC0003461E4A136017E00E4B1B68012B06D119
:1011DC00114B1B68194A13600A4B00221A60084B0A
:1011EC001B68164A126811461846FFF79DFE034607
:1011FC00124A136000E000BF00BF80BDC000002099
:10120C00D8000020D4000020940000209000002082
:10121C008C0000208000002088000020840000202A
:10122C00AD12000850000020DC000020540000200B
:10123C00E0000020780000207C00002050010020FD
:10124C0080B500AF114B1B68DBB21A464021104829
:10125C0000F0AFFF0F4B1B68DBB21A4680210C4825
:10126C0000F0A7FF0C4B1B68DBB21A464FF48071E1
:10127C00074800F09EFF094B1B68DBB21A464FF47F
:10128C000071034800F095FF00BF80BD50000020A6
:10129C0000080140DC00002054000020E000002089
:1012AC0080B500AF274B1B68002B02D0012B07D059
:1012BC000DE0244B01221A60234B00221A6006E039
:1012CC00204B00221A60204B01221A6000BF1F4BDA
:1012DC001B68002B08D11B4B1B681D4A13601A4B53
:1012EC001B681C4A136005E0194B00221A60194B4D
:1012FC0001221A60184B1B685B42174A1360164B8D
:10130C001B68012B0BD1154B1B68154A82FB031272
:10131C009210DB17D31A1846FFF7F2F80FE00F4BB9
:10132C001A680F4B83FB02139910D317C91A0B467B
:10133C009B000B445B00D11A0846FFF7E1F800BF95
:10134C0080BD00BF50000020DC000020D800002031
:10135C0054000020E000002078000020E80000206D
:10136C006766666680B500AFFFF76AFF00BF80BD99
:10137C0080B500AF01224FF48061054800F019FFE1
:10138C0001224FF40061024800F013FF00BF80BD42
:10139C000008014080B500AF01224FF48061054880
:1013AC0000F007FF00224FF40061024800F001FF3B
:1013BC0000BF80BD0008014080B500AF00224FF493
:1013CC008061054800F0F5FE01224FF400610248EF
:1013DC0000F0EFFE00BF80BD0008014080B500AFFB
:1013EC0001224FF48051054800F0E3FE01224FF436
:1013FC000051024800F0DDFE00BF80BD0008014036
:10140C0080B500AF01224FF48051054800F0D1FEA9
:10141C0000224FF40051024800F0CBFE00BF80BD0B
:10142C000008014080B500AF00224FF48051054800
:10143C0000F0BFFE01224FF40051024800F0B9FE4B
:10144C0000BF80BD0008014080B500AF00224FF402
:10145C0080610B4800F0ADFE00224FF4006108489B
:10146C0000F0A7FE00224FF48051054800F0A1FEC9
:10147C0000224FF40051024800F09BFE00BF80BDDB
:10148C000008014080B500AF2021024800F0A9FE01
:10149C0000BF80BD0008014080B500AF00F088FBA4
:1014AC0000F022F800F05CF800F0A6F80A4801F011
:1014BC00DDFA01220021094800F014F93222012141
:1014CC00074800F00FF932220221064800F00AF911
:1014DC0000F0BEF9FCE700BF5C01002071130008AE
:1014EC00351000089114000880B590B000AF07F1DA
:1014FC00180328220021184601F068FE3B1D00222B
:10150C001A605A609A60DA601A610223BB61012387
:10151C00BB621023FB6200237B6307F118031846A0
:10152C0000F078FE0346002B01D000F0D5F80F2315
:10153C007B600023BB600023FB6000233B61002326
:10154C007B613B1D0021184601F0E4F80346002B9B
:10155C0001D000F0C1F800BF4037BD4680BD00008F
:10156C0080B586B000AF07F1080300221A605A60FC
:10157C009A60DA603B4600221A605A601D4B4FF0AD
:10158C0080421A601B4B00225A601A4B00229A6050
:10159C00184B4FF6FF72DA60164B00221A61154B8E
:1015AC0000229A61134801F011FA0346002B01D076
:1015BC0000F092F84FF48053BB6007F10803194612
:1015CC000C4801F08FFB0346002B01D000F084F88F
:1015DC0000233B6000237B603B461946054801F025
:1015EC0067FD0346002B01D000F076F800BF1837DA
:1015FC00BD4680BD5C01002080B586B000AF07F110
:10160C00080300221A605A609A60DA60284B9B69C2
:10161C00274A43F004039361254B9B6903F00403B1
:10162C007B607B68224B9B69214A43F008039361E2
:10163C001F4B9B6903F008033B603B68002243F699
:10164C00F0711C4800F0B5FD00224FF6FF711A48EE
:10165C0000F0AFFD0F23BB600023FB6001233B6157
:10166C0007F108031946134800F012FC43F6F07317
:10167C00BB600123FB6000233B6102237B6107F10C
:10168C00080319460B4800F003FC4FF6FF73BB60D0
:10169C000123FB6000233B6102237B6107F10803FC
:1016AC001946054800F0F4FB00BF1837BD4680BD55
:1016BC000010024000080140000C014080B582B0CF
:1016CC0000AF786000F064F800F09CF9FFF766F961
:1016DC0000BF0837BD4680BD80B400AF72B600BFF6
:1016EC00FEE7000080B485B000AFF860B9607A60A6
:1016FC00254B1B78272B42D8234B1B781946234AA2
:10170C000B469B000B449B001344FA681A601E4B5B
:10171C001B7819461D4A0B469B000B449B00134437
:10172C000433BA681A60184B1B781946174A0B46D3
:10173C009B000B449B00134408337A681A60124BCD
:10174C001B781946114A0B469B000B449B00134413
:10175C000C3300221A700C4B1A780B4B1B78194661
:10176C0010460A4A0B469B000B449B001344103353
:10177C001860054B1B780133DAB2034B1A7000BFAB
:10178C001437BD4680BC7047F4000020A401002033
:10179C0080B483B000AF00237B6048E02A497A68AC
:1017AC0013469B0013449B000B4404331B68002B13
:1017BC0013D025497A6813469B0013449B000B44B5
:1017CC0004331B68591E20487A6813469B00134447
:1017DC009B0003440433196026E01B497A681346C6
:1017EC009B0013449B000B440833196816487A6815
:1017FC0013469B0013449B000344043319601249A5
:10180C007A6813469B0013449B000B440C331B78E3
:10181C000133D8B20C497A6813469B0013449B00E1
:10182C000B440C3302461A707B6801337B60074B08
:10183C001B781A467B689342B0DB00BF00BF0C37A5
:10184C00BD4680BC704700BFA4010020F4000020FE
:10185C0080B500AF254B1A68254913469B001344ED
:10186C009B000B440C331B78002B2FD01F4B1A689A
:10187C001F4913469B0013449B000B440C331B78ED
:10188C00013BD8B21A4913469B0013449B000B44EE
:10189C000C3302461A70154B1A68154913469B00F7
:1018AC0013449B000B441B689847104B1A68104953
:1018BC0013469B0013449B000B4408331B68002BFE
:1018CC0004D10A4B1B68184600F016F8074B1B682E
:1018DC000133084A127893FBF2F102FB01F29B1AD6
:1018EC00024A136000F060F800BF80BDF8000020D1
:1018FC00A4010020F400002080B485B000AF786013
:10190C0023497A6813469B0013449B000B441B68C5
:10191C00002B07D11F4B1A781F4B1A701F4B1B78CB
:10192C00FB7302E01E4B1B78FB7319497A68134654
:10193C009B0013449B000B4400221A6014497A68E4
:10194C0013469B0013449B000B44043300221A6083
:10195C000F497A6813469B0013449B000B440833D1
:10196C0000221A600A497A6813469B0013449B00B4
:10197C000B440C3300221A700A4B1B78013BDAB271
:10198C00084B1A70FB7B18461437BD4680BC704759
:10199C00A40100204E010020F50000204C01002085
:1019AC004F010020F400002080B400AF00BFBD4602
:1019BC0080BC704780B483B000AF78600F4A7B68FE
:1019CC0052F82330002B13DD0C4A7B6852F823307D
:1019DC005A1E0A497B6841F82320084A7B6852F852
:1019EC002330002B04DC064A7B68012142F82310CB
:1019FC0000BF0C37BD4680BC704700BFFC00002008
:101A0C002401002080B500AF0020FFF7D3FF012098
:101A1C00FFF7D0FF0220FFF7CDFF0320FFF7CAFF2F
:101A2C000420FFF7C7FF0520FFF7C4FF0620FFF7D0
:101A3C00C1FF0720FFF7BEFF0820FFF7BBFF0920FF
:101A4C00FFF7B8FF00BF80BD80B485B000AF154B69
:101A5C009B69144A43F001039361124B9B6903F099
:101A6C000103BB60BB680F4BDB690E4A43F080532C
:101A7C00D3610C4BDB6903F080537B607B680A4BB2
:101A8C005B68FB60FB6823F0E063FB60FB6843F082
:101A9C008063FB60044AFB68536000BF1437BD468B
:101AAC0080BC7047001002400000014080B584B03B
:101ABC0000AF78607B681B68B3F1804F13D10C4B7F
:101ACC00DB690B4A43F00103D361094BDB6903F07B
:101ADC000103FB60FB68002200211C2000F0A1F92F
:101AEC001C2000F0BAF900BF1037BD4680BD00BF06
:101AFC000010024080B400AFFEE780B400AFFEE7F8
:101B0C0080B400AFFEE780B400AFFEE780B400AF56
:101B1C00FEE780B400AF00BFBD4680BC704780B408
:101B2C0000AF00BFBD4680BC704780B400AF00BFA3
:101B3C00BD4680BC704780B500AF00F07FF800BF99
:101B4C0080BD000080B500AF024800F0DBFF00BF95
:101B5C0080BD00BF5C01002080B400AF00BFBD465B
:101B6C0080BC7047FFF7F8FF0B480C490C4A002368
:101B7C0002E0D458C4500433C4188C42F9D3094A37
:101B8C00094C002301E013600432A242FBD301F0A4
:101B9C00F9FAFFF781FC704700000020A400002038
:101BAC002C320008A4000020C8040020FEE700002E
:101BBC0080B500AF084B1B68074A43F01003136055
:101BCC00032000F023F90F2000F008F8FFF73CFF8A
:101BDC000023184680BD00BF0020024080B582B0B3
:101BEC0000AF7860124B1A68124B1B7819464FF4F1
:101BFC007A73B3FBF1F3B2FBF3F3184600F03BF945
:101C0C000346002B01D001230EE07B680F2B0AD872
:101C1C00002279684FF0FF3000F003F9064A7B6828
:101C2C001360002300E0012318460837BD4680BD31
:101C3C0098000020A00000209C00002080B400AF81
:101C4C00054B1B781A46054B1B681344034A13605B
:101C5C0000BFBD4680BC7047A0000020C40400201B
:101C6C0080B400AF024B1B681846BD4680BC704761
:101C7C00C404002080B485B000AF78607B6803F0AA
:101C8C000703FB600C4BDB68BB60BA684FF6FF03C5
:101C9C001340BB60FB681A02BB68134343F0BF637D
:101CAC0043F40033BB60044ABB68D36000BF1437F5
:101CBC00BD4680BC704700BF00ED00E080B400AFB3
:101CCC00044BDB681B0A03F007031846BD4680BCB7
:101CDC00704700BF00ED00E080B483B000AF034656
:101CEC00FB7197F90730002B0BDBFB7903F01F021C
:101CFC00064997F907305B09012000FA02F241F816
:101D0C00232000BF0C37BD4680BC704700E100E0CB
:101D1C0080B483B000AF03463960FB7197F907308C
:101D2C00002B0ADB3B68DAB20C4997F90730120139
:101D3C00D2B20B4483F800230AE03B68DAB20849BC
:101D4C00FB7903F00F03043B1201D2B20B441A7659
:101D5C0000BF0C37BD4680BC704700BF00E100E0FF
:101D6C0000ED00E080B489B000AFF860B9607A6033
:101D7C00FB6803F00703FB61FB69C3F10703042B4A
:101D8C0028BF0423BB61FB690433062B02D9FB6912
:101D9C00033B00E000237B614FF0FF32BB6902FA8A
:101DAC0003F3DA43BB681A407B699A404FF0FF316A
:101DBC007B6901FA03F3D9437B680B401343184644
:101DCC002437BD4680BC704780B582B000AF7860C8
:101DDC007B68013BB3F1807F01D301230FE00A4AFA
:101DEC007B68013B53600F214FF0FF30FFF790FFF2
:101DFC00054B00229A60044B07221A6000231846F8
:101E0C000837BD4680BD00BF10E000E080B582B051
:101E1C0000AF78607868FFF72DFF00BF0837BD462C
:101E2C0080BD80B586B000AF0346B9607A60FB73A5
:101E3C0000237B61FFF742FF78617A68B9687869A3
:101E4C00FFF790FF024697F90F3011461846FFF73F
:101E5C005FFF00BF1837BD4680BD80B582B000AFB4
:101E6C000346FB7197F907301846FFF735FF00BFA3
:101E7C000837BD4680BD80B582B000AF7860786809
:101E8C00FFF7A2FF034618460837BD4680BD000089
:101E9C0080B48BB000AF7860396000237B62002384
:101EAC003B6248E101227B6A02FA03F3FB613B6867
:101EBC001B68FA691340BB61BA69FB699A4240F02E
:101ECC0037813B685B68A34A93425ED0A14A934238
:101EDC0075D8A14A934258D09F4A93426FD89F4AD3
:101EEC00934252D09D4A934269D89D4A93424CD01A
:101EFC009B4A934263D89B4A934246D0994A934259
:101F0C005DD8122B2AD8122B59D801A252F823F0E3
:101F1C00971F0008711F0008831F0008C51F0008C9
:101F2C00CB1F0008CB1F0008CB1F0008CB1F0008DD
:101F3C00CB1F0008CB1F0008CB1F0008CB1F0008CD
:101F4C00CB1F0008CB1F0008CB1F0008CB1F0008BD
:101F5C00CB1F0008791F00088D1F0008824A93428E
:101F6C0013D02CE03B68DB683B6229E03B68DB6804
:101F7C0004333B6224E03B68DB6808333B621FE0C0
:101F8C003B68DB680C333B621AE03B689B68002BB8
:101F9C0002D104233B6213E03B689B68012B05D103
:101FAC0008233B627B68FA691A6109E008233B62EB
:101FBC007B68FA695A6103E000233B6200E000BFD2
:101FCC00BB69FF2B01D87B6801E07B6804337B6124
:101FDC00BB69FF2B02D87B6A9B0002E07B6A083B43
:101FEC009B003B617B691A680F213B6901FA03F383
:101FFC00DB431A40396A3B6901FA03F31A437B69E4
:10200C001A603B685B6803F08053002B00F09080F3
:10201C00564B9B69554A43F001039361534B9B69A3
:10202C0003F00103BB60BB68514A7B6A9B08023317
:10203C0052F82330FB607B6A03F003039B000F22F2
:10204C0002FA03F3DB43FA681340FB607B68494AEE
:10205C0093420DD07B68484A934207D07B68474A2D
:10206C00934201D1022304E0032302E0012300E0A8
:10207C0000237A6A02F0030292009340FA68134339
:10208C00FB603B497B6A9B080233FA6841F82320CA
:10209C003B685B6803F48013002B06D0384B9A68BE
:1020AC003749BB6913438B6006E0354B9A68BB69B3
:1020BC00DB43334913408B603B685B6803F40013CC
:1020CC00002B06D02E4BDA682D49BB691343CB602D
:1020DC0006E02B4BDA68BB69DB4329491340CB6024
:1020EC003B685B6803F40033002B06D0244B5A6822
:1020FC002349BB6913434B6006E0214B5A68BB690B
:10210C00DB431F4913404B603B685B6803F480332F
:10211C00002B06D01A4B1A681949BB6913430B6084
:10212C0006E0174B1A68BB69DB43154913400B607B
:10213C007B6A01337B623B681A687B6A22FA03F381
:10214C00002B7FF4AFAE00BF00BF2C37BD4680BC68
:10215C00704700BF00003210000031100000221048
:10216C00000021100000121000001110001002409D
:10217C000000014000080140000C0140001001402B
:10218C000004014080B485B000AF78600B467B80C2
:10219C007B689A687B881340002B02D00123FB7369
:1021AC0001E00023FB73FB7B18461437BD4680BC53
:1021BC00704780B483B000AF78600B467B801346C9
:1021CC007B707B78002B03D07A887B681A6103E0E4
:1021DC007B881A047B681A6100BF0C37BD4680BC33
:1021EC00704780B485B000AF78600B467B807B680D
:1021FC00DB68FB607A88FB6813401A04FB68D943E0
:10220C007B880B401A437B681A6100BF1437BD46AC
:10221C0080BC704780B586B000AF78607B68002BBF
:10222C0001D101236CE27B681B6803F00103002BD6
:10223C0000F08780924B5B6803F00C03042B0CD0EE
:10224C008F4B5B6803F00C03082B12D18C4B5B6833
:10225C0003F48033B3F5803F0BD1894B1B6803F437
:10226C000033002B6CD07B685B68002B68D101239A
:10227C0046E27B685B68B3F5803F06D1804B1B68F8
:10228C007F4A43F4803313602EE07B685B68002B3D
:10229C000CD17B4B1B687A4A23F480331360784B48
:1022AC001B68774A23F4802313601DE07B685B680E
:1022BC00B3F5A02F0CD1724B1B68714A43F48023E9
:1022CC0013606F4B1B686E4A43F4803313600BE052
:1022DC006B4B1B686A4A23F480331360684B1B6892
:1022EC00674A23F4802313607B685B68002B13D050
:1022FC00FFF7B6FC386108E0FFF7B2FC02463B6919
:10230C00D31A642B01D90323FAE15D4B1B6803F448
:10231C000033002BF0D014E0FFF7A2FC386108E08A
:10232C00FFF79EFC02463B69D31A642B01D90323A9
:10233C00E6E1534B1B6803F40033002BF0D100E0B3
:10234C0000BF7B681B6803F00203002B63D04C4B6F
:10235C005B6803F00C03002B0BD0494B5B6803F05C
:10236C000C03082B1CD1464B5B6803F48033002B09
:10237C0016D1434B1B6803F00203002B05D07B687E
:10238C001B69012B01D00123BAE13D4B1B6823F0E3
:10239C00F8027B685B69DB00394913430B603AE058
:1023AC007B681B69002B20D0364B01221A60FFF78B
:1023BC0057FC386108E0FFF753FC02463B69D31A1F
:1023CC00022B01D903239BE12D4B1B6803F0020365
:1023DC00002BF0D02A4B1B6823F0F8027B685B695A
:1023EC00DB00274913430B6015E0264B00221A60D3
:1023FC00FFF736FC386108E0FFF732FC02463B6918
:10240C00D31A022B01D903237AE11D4B1B6803F06D
:10241C000203002BF0D17B681B6803F00803002B30
:10242C003AD07B689B69002B19D0174B01221A609C
:10243C00FFF716FC386108E0FFF712FC02463B6917
:10244C00D31A022B01D903235AE10D4B5B6A03F01B
:10245C000203002BF0D0012000F09AFA1CE00A4B8A
:10246C0000221A60FFF7FCFB38610FE0FFF7F8FB66
:10247C0002463B69D31A022B08D9032340E100BF63
:10248C000010024000004242800442429E4B5B6AB4
:10249C0003F00203002BE9D17B681B6803F00403F3
:1024AC00002B00F0A6800023FB75974BDB6903F033
:1024BC008053002B0DD1944BDB69934A43F080532E
:1024CC00D361914BDB6903F08053BB60BB68012384
:1024DC00FB758E4B1B6803F48073002B18D18B4B50
:1024EC001B688A4A43F480731360FFF7B9FB3861A9
:1024FC0008E0FFF7B5FB02463B69D31A642B01D900
:10250C000323FDE0814B1B6803F48073002BF0D098
:10251C007B68DB68012B06D17B4B1B6A7A4A43F044
:10252C00010313622DE07B68DB68002B0CD1764B2A
:10253C001B6A754A23F001031362734B1B6A724AC0
:10254C0023F0040313621CE07B68DB68052B0CD1C1
:10255C006D4B1B6A6C4A43F0040313626A4B1B6A93
:10256C00694A43F0010313620BE0674B1B6A664A2E
:10257C0023F001031362644B1B6A634A23F00403C8
:10258C0013627B68DB68002B15D0FFF769FB3861A1
:10259C000AE0FFF765FB02463B69D31A41F2883229
:1025AC00934201D90323ABE0574B1B6A03F00203A0
:1025BC00002BEED014E0FFF753FB38610AE0FFF775
:1025CC004FFB02463B69D31A41F28832934201D940
:1025DC00032395E04C4B1B6A03F00203002BEED156
:1025EC00FB7D012B05D1484BDB69474A23F0805317
:1025FC00D3617B68DB69002B00F08180424B5B6808
:10260C0003F00C03082B61D07B68DB69022B46D1ED
:10261C003F4B00221A60FFF723FB386108E0FFF7FD
:10262C001FFB02463B69D31A022B01D9032367E037
:10263C00354B1B6803F00073002BF0D17B681B6AD1
:10264C00B3F5803F08D1304B5B6823F400327B68D4
:10265C009B682D4913434B602B4B5B6823F474121E
:10266C007B68196A7B685B6A0B43274913434B6091
:10267C00274B01221A60FFF7F3FA386108E0FFF7E5
:10268C00EFFA02463B69D31A022B01D9032337E038
:10269C001D4B1B6803F00073002BF0D02FE01C4B7C
:1026AC0000221A60FFF7DCFA386108E0FFF7D8FA6D
:1026BC0002463B69D31A022B01D9032320E0124BAB
:1026CC001B6803F00073002BF0D118E07B68DB690A
:1026DC00012B01D1012313E00B4B5B68FB60FB6802
:1026EC0003F480327B681B6A9A4206D1FB6803F4C0
:1026FC0070127B685B6A9A4201D0012300E00023D0
:10270C0018461837BD4680BD0010024000700040CE
:10271C006000424280B584B000AF786039607B685D
:10272C00002B01D10123D0E06A4B1B6803F0070397
:10273C003A689A4210D9674B1B6823F00702654927
:10274C003B6813430B60634B1B6803F007033A6849
:10275C009A4201D00123B8E07B681B6803F00203A6
:10276C00002B20D07B681B6803F00403002B05D0E2
:10277C00594B5B68584A43F4E06353607B681B68B1
:10278C0003F00803002B05D0534B5B68524A43F40B
:10279C0060535360504B5B6823F0F0027B689B687E
:1027AC004D4913434B607B681B6803F00103002BFE
:1027BC0040D07B685B68012B07D1474B1B6803F447
:1027CC000033002B15D101237FE07B685B68022B63
:1027DC0007D1414B1B6803F00073002B09D1012377
:1027EC0073E03D4B1B6803F00203002B01D1012366
:1027FC006BE0394B5B6823F003027B685B683649FE
:10280C0013434B60FFF72CFAF8600AE0FFF728FA45
:10281C000246FB68D31A41F28832934201D9032352
:10282C0053E02D4B5B6803F00C027B685B689B00EC
:10283C009A42EBD1274B1B6803F007033A689A4284
:10284C0010D2244B1B6823F0070222493B68134328
:10285C000B60204B1B6803F007033A689A4201D0C7
:10286C00012332E07B681B6803F00403002B08D0C3
:10287C00194B5B6823F4E0627B68DB6816491343F1
:10288C004B607B681B6803F00803002B09D0124BCC
:10289C005B6823F460527B681B69DB000E491343B1
:1028AC004B6000F021F802460B4B5B681B0903F0F0
:1028BC000F030A49CB5C22FA03F3094A1360094B54
:1028CC001B681846FFF78AF9002318461037BD46D7
:1028DC0080BD00BF00200240001002400032000802
:1028EC00980000209C00002080B487B000AF00232B
:1028FC00FB600023BB6000237B6100237B60002313
:10290C003B611E4B5B68FB60FB6803F00C03042B04
:10291C0002D0082B03D027E0194B3B6127E0FB6862
:10292C009B0C03F00F03174AD35C7B60FB6803F42A
:10293C008033002B10D0114B5B685B0C03F0010350
:10294C00114AD35CBB607B680D4A02FB03F2BB6887
:10295C00B2FBF3F37B6104E07B680C4A02FB03F3EC
:10296C007B617B693B6102E0054B3B6100BF3B69CE
:10297C0018461C37BD4680BC704700BF0010024093
:10298C0000127A00103200082032000800093D00C5
:10299C0080B485B000AF78600A4B1B680A4AA2FB72
:1029AC0003235B0A7A6802FB03F3FB6000BFFB683E
:1029BC005A1EFA60002BF9D100BF00BF1437BD4678
:1029CC0080BC704798000020D34D621080B582B057
:1029DC0000AF78607B68002B01D1012341E07B685C
:1029EC0093F83D30DBB2002B06D17B68002283F8D4
:1029FC003C207868FFF75AF87B68022283F83D2068
:102A0C007B681A687B6804331946104600F056FA46
:102A1C007B68012283F846207B68012283F83E20E4
:102A2C007B68012283F83F207B68012283F84020D9
:102A3C007B68012283F841207B68012283F84220C5
:102A4C007B68012283F843207B68012283F84420B1
:102A5C007B68012283F845207B68012283F83D20A6
:102A6C00002318460837BD4680BD000080B485B0F1
:102A7C0000AF78607B6893F83D30DBB2012B01D05E
:102A8C00012335E07B68022283F83D207B681B68BC
:102A9C00DA687B681B6842F00102DA607B681B68AD
:102AAC00164A934209D07B681B68B3F1804F04D05F
:102ABC007B681B68124A934211D17B681B689B6828
:102ACC0003F00703FB60FB68062B10D07B681B68C8
:102ADC001A687B681B6842F001021A6007E07B6889
:102AEC001B681A687B681B6842F001021A6000239D
:102AFC0018461437BD4680BC704700BF002C0140FF
:102B0C000004004080B584B000AF78607B681B681F
:102B1C00DB68FB607B681B681B69BB60BB6803F0F0
:102B2C000203002B20D0FB6803F00203002B1BD008
:102B3C007B681B686FF002021A617B6801221A77AE
:102B4C007B681B689B6903F00303002B03D0786838
:102B5C0000F098F905E0786800F08BF9786800F0DF
:102B6C009AF97B6800221A77BB6803F00403002BE8
:102B7C0020D0FB6803F00403002B1BD07B681B6880
:102B8C006FF004021A617B6802221A777B681B685B
:102B9C009B6903F44073002B03D0786800F072F942
:102BAC0005E0786800F065F9786800F074F97B68E6
:102BBC0000221A77BB6803F00803002B20D0FB68B7
:102BCC0003F00803002B1BD07B681B686FF0080216
:102BDC001A617B6804221A777B681B68DB6903F037
:102BEC000303002B03D0786800F04CF905E07868FB
:102BFC0000F03FF9786800F04EF97B6800221A77F4
:102C0C00BB6803F01003002B20D0FB6803F010030B
:102C1C00002B1BD07B681B686FF010021A617B685D
:102C2C0008221A777B681B68DB6903F44073002B5E
:102C3C0003D0786800F026F905E0786800F019F9FF
:102C4C00786800F028F97B6800221A77BB6803F0DB
:102C5C000103002B0CD0FB6803F00103002B07D001
:102C6C007B681B686FF001021A617868FEF726FD1D
:102C7C00BB6803F08003002B0CD0FB6803F08003CF
:102C8C00002B07D07B681B686FF080021A61786894
:102C9C0000F06FFABB6803F04003002B0CD0FB680C
:102CAC0003F04003002B07D07B681B686FF04002D9
:102CBC001A61786800F0F8F8BB6803F02003002B69
:102CCC000CD0FB6803F02003002B07D07B681B683B
:102CDC006FF020021A61786800F042FA00BF1037DA
:102CEC00BD4680BD80B584B000AF786039600023EC
:102CFC00FB737B6893F83C30012B01D10223B4E0C9
:102D0C007B68012283F83C207B68022283F83D20FB
:102D1C007B681B689B68BB60BB6823F07703BB6058
:102D2C00BB6823F47F43BB607B681B68BA689A60FE
:102D3C003B681B68B3F5005F3ED0B3F5005F00F253
:102D4C008780B3F5805F00F08680B3F5805F7FD815
:102D5C00702B1AD0702B7BD8602B50D0602B77D86F
:102D6C00502B3CD0502B73D8402B58D0402B6FD8C5
:102D7C00302B64D0302B6BD8202B60D0202B67D815
:102D8C00002B5CD0102B5AD062E07B6818683B6833
:102D9C0099683B685A683B68DB6800F06AF97B68A5
:102DAC001B689B68BB60BB6843F07703BB607B68A8
:102DBC001B68BA689A604FE07B6818683B68996832
:102DCC003B685A683B68DB6800F053F97B681B680A
:102DDC009A687B681B6842F480429A603CE07B688E
:102DEC0018683B6859683B68DB681A4600F0CAF8FB
:102DFC007B681B685021184600F021F92CE07B6899
:102E0C0018683B6859683B68DB681A4600F0E8F8BC
:102E1C007B681B686021184600F011F91CE07B6888
:102E2C0018683B6859683B68DB681A4600F0AAF8DA
:102E3C007B681B684021184600F001F90CE07B68A8
:102E4C001A683B681B681946104600F0F8F803E056
:102E5C000123FB7300E000BF7B68012283F83D2057
:102E6C007B68002283F83C20FB7B18461037BD465C
:102E7C0080BD80B483B000AF786000BF0C37BD4616
:102E8C0080BC704780B483B000AF786000BF0C3753
:102E9C00BD4680BC704780B483B000AF786000BF83
:102EAC000C37BD4680BC704780B483B000AF7860EF
:102EBC0000BF0C37BD4680BC7047000080B485B0A5
:102ECC0000AF786039607B681B68FB607B682B4ABD
:102EDC00934207D07B68B3F1804F03D07B68284ABC
:102EEC00934208D1FB6823F07003FB603B685B687E
:102EFC00FA681343FB607B68204A934207D07B68D7
:102F0C00B3F1804F03D07B681D4A934208D1FB6814
:102F1C0023F44073FB603B68DB68FA681343FB6087
:102F2C00FB6823F080023B685B691343FB607B68A2
:102F3C00FA681A603B689A687B68DA623B681A68C0
:102F4C007B689A627B680D4A934203D13B681A698D
:102F5C007B681A637B6801225A617B681B6903F0EA
:102F6C000103002B05D07B681B6923F001027B68F1
:102F7C001A6100BF1437BD4680BC7047002C01405D
:102F8C000004004080B487B000AFF860B9607A608C
:102F9C00FB681B6A7B61FB681B6A23F00102FB6800
:102FAC001A62FB689B693B613B6923F0F0033B6150
:102FBC007B681B013A6913433B617B6923F00A036D
:102FCC007B617A69BB6813437B61FB683A699A61E0
:102FDC00FB687A691A6200BF1C37BD4680BC70471B
:102FEC0080B487B000AFF860B9607A60FB681B6A88
:102FFC007B61FB681B6A23F01002FB681A62FB689A
:10300C009B693B613B6923F470433B617B681B0309
:10301C003A6913433B617B6923F0A0037B61BB6876
:10302C001B017A6913437B61FB683A699A61FB68FF
:10303C007A691A6200BF1C37BD4680BC704780B4E9
:10304C0085B000AF786039607B689B68FB60FB687B
:10305C0023F07003FB603A68FB68134343F00703EB
:10306C00FB607B68FA689A6000BF1437BD4680BC71
:10307C00704780B487B000AFF860B9607A603B608D
:10308C00FB689B687B617B6923F47F437B613B68B6
:10309C001A027B681A43BB6813437A6913437B613A
:1030AC00FB687A699A6000BF1C37BD4680BC7047CC
:1030BC0080B485B000AF786039607B6893F83C30A1
:1030CC00012B01D1022341E07B68012283F83C20D3
:1030DC007B68022283F83D207B681B685B68FB6081
:1030EC007B681B689B68BB60FB6823F07003FB600C
:1030FC003B681B68FA681343FB607B681B68FA68C3
:10310C005A607B681B68144A934209D07B681B6821
:10311C00B3F1804F04D07B681B68104A93420CD1EA
:10312C00BB6823F08003BB603B685B68BA681343E1
:10313C00BB607B681B68BA689A607B68012283F865
:10314C003D207B68002283F83C200023184614376E
:10315C00BD4680BC704700BF002C014000040040FD
:10316C0080B483B000AF786000BF0C37BD4680BC24
:10317C00704780B483B000AF786000BF0C37BD4699
:10318C0080BC704770B500260C4D0D4C641BA41010
:10319C00A64209D100F022F800260A4D0A4C641B05
:1031AC00A410A64205D170BD55F8043B98470136D2
:1031BC00EEE755F8043B98470136F2E72432000855
:1031CC002432000824320008283200080346024446
:1031DC00934200D1704703F8011BF9E7F8B500BF23
:1031EC00F8BC08BC9E467047F8B500BFF8BC08BCDC
:0431FC009E46704734
:103200000000000000000000010203040607080996
:1032100002030405060708090A0B0C0D0E0F101017
:0432200001020000A7
:04322400310100086C
:043228000D0100088C
:10322C00010000000100000001000000010000008E
:10323C00010000000100000001000000010000007E
:10324C00010000000100000001000000010000006E
:10325C00010000000100000001000000010000005E
:10326C00D0070000D0070000D0070000D0070000F6
:10327C00010000000100000001000000050000003A
:10328C000200000003000000050000000200000026
:10329C00030000000100000001000000020000001B
:1032AC000500000002000000030000000500000003
:1032BC00020000000300000000127A001000000061
:0432CC0001000000FD
:0400000508001B7163
:00000001FF
